{
  "_format": "hh-sol-artifact-1",
  "contractName": "HelloWorld",
  "sourceName": "contracts/HelloWorld.sol",
  "abi": [
    {
      "inputs": [
        {
          "internalType": "string",
          "name": "_message",
          "type": "string"
        }
      ],
      "stateMutability": "nonpayable",
      "type": "constructor"
    },
    {
      "anonymous": false,
      "inputs": [
        {
          "indexed": false,
          "internalType": "string",
          "name": "oldStr",
          "type": "string"
        },
        {
          "indexed": false,
          "internalType": "string",
          "name": "newStr",
          "type": "string"
        }
      ],
      "name": "UpdatedMessages",
      "type": "event"
    },
    {
      "inputs": [],
      "name": "get",
      "outputs": [
        {
          "internalType": "string",
          "name": "",
          "type": "string"
        }
      ],
      "stateMutability": "view",
      "type": "function"
    },
    {
      "inputs": [],
      "name": "message",
      "outputs": [
        {
          "internalType": "string",
          "name": "",
          "type": "string"
        }
      ],
      "stateMutability": "view",
      "type": "function"
    },
    {
      "inputs": [
        {
          "internalType": "string",
          "name": "newMessage",
          "type": "string"
        }
      ],
      "name": "update",
      "outputs": [],
      "stateMutability": "nonpayable",
      "type": "function"
    }
  ],
  "bytecode": "0x60806040523480156200001157600080fd5b506040516200097838038062000978833981810160405281019062000037919062000179565b80600090805190602001906200004f92919062000057565b50506200032e565b828054620000659062000253565b90600052602060002090601f016020900481019282620000895760008555620000d5565b82601f10620000a457805160ff1916838001178555620000d5565b82800160010185558215620000d5579182015b82811115620000d4578251825591602001919060010190620000b7565b5b509050620000e49190620000e8565b5090565b5b8082111562000103576000816000905550600101620000e9565b5090565b60006200011e6200011884620001e7565b620001be565b9050828152602081018484840111156200013757600080fd5b620001448482856200021d565b509392505050565b600082601f8301126200015e57600080fd5b81516200017084826020860162000107565b91505092915050565b6000602082840312156200018c57600080fd5b600082015167ffffffffffffffff811115620001a757600080fd5b620001b5848285016200014c565b91505092915050565b6000620001ca620001dd565b9050620001d8828262000289565b919050565b6000604051905090565b600067ffffffffffffffff821115620002055762000204620002ee565b5b62000210826200031d565b9050602081019050919050565b60005b838110156200023d57808201518184015260208101905062000220565b838111156200024d576000848401525b50505050565b600060028204905060018216806200026c57607f821691505b60208210811415620002835762000282620002bf565b5b50919050565b62000294826200031d565b810181811067ffffffffffffffff82111715620002b657620002b5620002ee565b5b80604052505050565b7f4e487b7100000000000000000000000000000000000000000000000000000000600052602260045260246000fd5b7f4e487b7100000000000000000000000000000000000000000000000000000000600052604160045260246000fd5b6000601f19601f8301169050919050565b61063a806200033e6000396000f3fe608060405234801561001057600080fd5b50600436106100415760003560e01c80633d7403a3146100465780636d4ce63c14610062578063e21f37ce14610080575b600080fd5b610060600480360381019061005b91906103ab565b61009e565b005b61006a610180565b6040516100779190610425565b60405180910390f35b610088610212565b6040516100959190610425565b60405180910390f35b60008080546100ac90610532565b80601f01602080910402602001604051908101604052809291908181526020018280546100d890610532565b80156101255780601f106100fa57610100808354040283529160200191610125565b820191906000526020600020905b81548152906001019060200180831161010857829003601f168201915b5050505050905081600090805190602001906101429291906102a0565b507ff91d506d7335e83e4869a58cd98e0557cdcef6f507ba1e52725521305626d05b8183604051610174929190610447565b60405180910390a15050565b60606000805461018f90610532565b80601f01602080910402602001604051908101604052809291908181526020018280546101bb90610532565b80156102085780601f106101dd57610100808354040283529160200191610208565b820191906000526020600020905b8154815290600101906020018083116101eb57829003601f168201915b5050505050905090565b6000805461021f90610532565b80601f016020809104026020016040519081016040528092919081815260200182805461024b90610532565b80156102985780601f1061026d57610100808354040283529160200191610298565b820191906000526020600020905b81548152906001019060200180831161027b57829003601f168201915b505050505081565b8280546102ac90610532565b90600052602060002090601f0160209004810192826102ce5760008555610315565b82601f106102e757805160ff1916838001178555610315565b82800160010185558215610315579182015b828111156103145782518255916020019190600101906102f9565b5b5090506103229190610326565b5090565b5b8082111561033f576000816000905550600101610327565b5090565b6000610356610351846104a3565b61047e565b90508281526020810184848401111561036e57600080fd5b6103798482856104f0565b509392505050565b600082601f83011261039257600080fd5b81356103a2848260208601610343565b91505092915050565b6000602082840312156103bd57600080fd5b600082013567ffffffffffffffff8111156103d757600080fd5b6103e384828501610381565b91505092915050565b60006103f7826104d4565b61040181856104df565b93506104118185602086016104ff565b61041a816105f3565b840191505092915050565b6000602082019050818103600083015261043f81846103ec565b905092915050565b6000604082019050818103600083015261046181856103ec565b9050818103602083015261047581846103ec565b90509392505050565b6000610488610499565b90506104948282610564565b919050565b6000604051905090565b600067ffffffffffffffff8211156104be576104bd6105c4565b5b6104c7826105f3565b9050602081019050919050565b600081519050919050565b600082825260208201905092915050565b82818337600083830152505050565b60005b8381101561051d578082015181840152602081019050610502565b8381111561052c576000848401525b50505050565b6000600282049050600182168061054a57607f821691505b6020821081141561055e5761055d610595565b5b50919050565b61056d826105f3565b810181811067ffffffffffffffff8211171561058c5761058b6105c4565b5b80604052505050565b7f4e487b7100000000000000000000000000000000000000000000000000000000600052602260045260246000fd5b7f4e487b7100000000000000000000000000000000000000000000000000000000600052604160045260246000fd5b6000601f19601f830116905091905056fea264697066735822122042edeef14fe740713a1ca1e564c7e6fdd736f180e070107571efabfda6b27c3764736f6c63430008040033",
  "linkReferences": {},
  "deployedLinkReferences": {}
}